S0130000736C6176655F73746174652E7372656376
S11300000C942A000C9434000C9434000C943400A6
S11300100C9434000C9434000C9434000C9434008C
S11300200C9434000C9434000C9434000C9434007C
S11300300C9434000C9434000C9434000C9434006C
S11300400C9434000C9434000C9434000C9434005C
S11300500C94340011241FBECFE5D8E0DEBFCDBF21
S11300600E94EC000C9460010C940000442319F0ED
S11300704130C9F10895813091F028F08230D9F0EF
S1130080833029F108952AB381E090E002C0880FFB
S1130090991F6A95E2F7809582238ABB089527B356
S11300A081E090E002C0880F991F6A95E2F780957D
S11300B0822387BB089524B381E090E002C0880FB7
S11300C0991F6A95E2F78095822384BB089521B332
S11300D081E090E002C0880F991F6A95E2F780954D
S11300E0822381BB0895813089F028F08230C9F0E1
S11300F0833011F108952AB381E090E002C0880FA3
S1130100991F6A95E2F7822B8ABB089527B381E091
S113011090E002C0880F991F6A95E2F7822B87BB93
S1130120089524B381E090E002C0880F991F6A9576
S1130130E2F7822B84BB089521B381E090E002C0F2
S1130140880F991F6A95E2F7822B81BB089581304D
S113015089F028F08230C9F0833011F108952BB36F
S113016081E090E002C0880F991F6A95E2F7822728
S11301708BBB089528B381E090E002C0880F991FDB
S11301806A95E2F7822788BB089525B381E090E061
S113019002C0880F991F6A95E2F7822785BB0895EC
S11301A022B381E090E002C0880F991F6A95E2F7BC
S11301B0822782BB089541E062E082E00E9436001B
S11301C0089562E082E00E94A700089541E067E09C
S11301D082E00E943600089580E00E941C010E9483
S11301E0DB000E94E6000E9455012FEF83ED90E3AF
S11301F0215080409040E1F700C00000C0E0D0E012
S11302000E945C01813019F0813699F0F9CFC11157
S113021007C00E9442018D2F0E944501C1E0F0CF2A
S1130220C13071F70E94420181E00E944501CD2F47
S1130230E7CF0E94E100E4CF882319F0813089F0F0
S11302401FC041E064E083E00E94360041E063E0C7
S113025082E00E94360041E064E082E00E943600C1
S11302600FC041E065E083E00E94360041E065E0B4
S113027082E00E94360041E066E082E00E9436009F
S113028081E00895949A81E00895813039F018F05E
S1130290833039F008C0AB9AAC9805C0AC9AAB98DF
S11302A002C0AB98AC9881E00895BD98BE9ABF98FF
S11302B0BC9883E48DB90895779BFECF8FB10895E0
S10702C0F894FFCFDC
S9030000FC
