:100000000C9434000C9451000C9451000C94510049
:100010000C9451000C9451000C9451000C9451001C
:100020000C9451000C9451000C9451000C9451000C
:100030000C9451000C9475040C9451000C945100D4
:100040000C9484040C9451000C9451000C945100B5
:100050000C945100E00200032203450368038A0365
:10006000C403F30315044D0411241FBECFE5D8E0EB
:10007000DEBFCDBF10E0A0E6B0E0EAE4FAE002C0E7
:1000800005900D92A23FB107D9F720E0A2EFB0E0B2
:1000900001C01D92A93FB207E1F70E94B6020C947D
:1000A00023050C9400003F983E9A3D988230B9F0A9
:1000B00028F4882341F0813061F022C08330A9F018
:1000C0008430C9F01DC03C983B983A9839983898CC
:1000D00017C03C983B983A983998389A11C03C9888
:1000E0003B983A98399A38980BC03C983B983A9884
:1000F000399A389A05C03C983B983A9A399838987A
:10010000329A319A309A339A379A7894369A089577
:10011000369A84B195B10895442319F04130C9F15C
:100120000895813091F028F08230D9F0833029F1A0
:1001300008952AB381E090E002C0880F991F6A9564
:10014000E2F7809582238ABB089527B381E090E08F
:1001500002C0880F991F6A95E2F78095822387BBBA
:10016000089524B381E090E002C0880F991F6A953A
:10017000E2F78095822384BB089521B381E090E06B
:1001800002C0880F991F6A95E2F78095822381BB90
:100190000895813089F028F08230C9F0833011F160
:1001A00008952AB381E090E002C0880F991F6A95F4
:1001B000E2F7822B8ABB089527B381E090E002C06A
:1001C000880F991F6A95E2F7822B87BB089524B3A5
:1001D00081E090E002C0880F991F6A95E2F7822BB8
:1001E00084BB089521B381E090E002C0880F991F7D
:1001F0006A95E2F7822B81BB0895442319F04130C0
:10020000C9F10895813091F028F08230D9F083301F
:1002100029F108952BB381E090E002C0880F991F67
:100220006A95E2F7809582238BBB089528B381E01D
:1002300090E002C0880F991F6A95E2F780958223AB
:1002400088BB089525B381E090E002C0880F991F14
:100250006A95E2F78095822385BB089522B381E0F9
:1002600090E002C0880F991F6A95E2F7809582237B
:1002700082BB0895813089F028F08230C9F0833044
:1002800011F108952BB381E090E002C0880F991F0F
:100290006A95E2F7822B8BBB089528B381E090E04A
:1002A00002C0880F991F6A95E2F7822B88BB0895D8
:1002B00025B381E090E002C0880F991F6A95E2F7AC
:1002C000822B85BB089522B381E090E002C0880FA5
:1002D000991F6A95E2F7822B82BB0895813079F0ED
:1002E00028F08230A9F08330E1F024C089B390E097
:1002F00002C0959587956A95E2F78170089586B357
:1003000090E002C0959587956A95E2F7817008950F
:1003100083B390E002C0959587956A95E2F7817066
:10032000089580B390E002C0959587956A95E2F7AD
:100330008170089580E0089540E060E081E00E94CF
:100340008C00089560E081E00E946E010895CF93D3
:10035000C82F40E061E081E00E94FD0040E062E0E3
:1003600081E00E94FD0040E063E081E00E94FD002A
:100370008BB39C2F907F8F70892B8BBB41E063E008
:1003800081E00E94FD008FE99FE00197F1F700C036
:10039000000040E063E081E00E94FD002BB330E10B
:1003A000C39FC0011124922F9F70892B8BBB41E00A
:1003B00063E081E00E94FD008FE99FE00197F1F783
:1003C00000C0000040E063E081E00E94FD008FE398
:1003D0009FE10197F1F700C00000CF91089541E03F
:1003E00061E081E00E948C0041E062E081E00E94D7
:1003F0008C0041E063E081E00E948C0041E064E019
:1004000080E00E948C0041E065E080E00E948C006A
:1004100041E066E080E00E948C0041E067E080E01F
:100420000E948C002FEF81EE94E02150804090409C
:10043000E1F700C0000082E00E94A70183E30E9470
:10044000A70182E30E94A70188E20E94A7018CE035
:100450000E94A70181E00E94A70186E00E94A701F7
:100460008FE39CE90197F1F700C00000089581E057
:100470000E94A7010895CF93C82F41E061E081E079
:100480000E94FD0040E062E081E00E94FD0040E04B
:1004900063E081E00E94FD008BB39C2F907F8F7002
:1004A000892B8BBB41E063E081E00E94FD008FE976
:1004B0009FE00197F1F700C0000040E063E081E0B9
:1004C0000E94FD002BB330E1C39FC0011124922F85
:1004D0009F70892B8BBB41E063E081E00E94FD00AF
:1004E0008FE99FE00197F1F700C0000040E063E072
:1004F00081E00E94FD008FE39FE10197F1F700C0CA
:100500000000CF910895CF93DF93EC018881882379
:1005100031F021960E943B0289918111FBCFDF913E
:10052000CF910895CF93DF93CDB7DEB72A970FB65B
:10053000F894DEBF0FBECDBF2AE030E0AE014F5FC2
:100540005F4F0E94D704CE0101960E9483022A9633
:100550000FB6F894DEBF0FBECDBFDF91CF910895E7
:1005600041E062E082E00E948C0008950E94EF0169
:10057000C5E00F2EF9E0BF2EF02D02EF10E06894D9
:10058000CC24C3F80F2EF7E0AF2EF02D0F2EF6E09F
:100590009F2EF02DD1E06894DD24D2F80F2EF3E0E9
:1005A000EF2EF02D6894FF24F1F88091F80090E090
:1005B000FC018A309105E0F7E65DFF4F0C94D10411
:1005C0000E94370280E690E00E9483026091F8006A
:1005D00070E080E090E00E94920280EC0E94A7010F
:1005E0008DE690E00E948302D093F8002FEF83ED18
:1005F00090E3215080409040E1F700C00000D5CF4B
:100600000E94370280E690E00E9483026091F80029
:1006100070E080E090E00E94920280EC0E94A701CE
:1006200085E790E00E9483020E94B002F092F800F9
:10063000EFEFF3ED20E3E150F0402040E1F700C0A0
:100640000000B3CF0E94370280E690E00E94830250
:100650006091F80070E080E090E00E94920280ECEF
:100660000E94A70183E890E00E94830280E00E943C
:100670005300E092F8008FEF93EDE0E3815090405B
:10068000E040E1F700C0000090CF0E94370280E612
:1006900090E00E9483026091F80070E080E090E0BA
:1006A0000E94920280EC0E94A70184E990E00E94DF
:1006B00083020E94C7047894D092F800FFEF23EDE4
:1006C00080E3F15020408040E1F700C000006DCF92
:1006D0000E94370280E690E00E9483026091F80059
:1006E00070E080E090E00E94920280EC0E94A701FE
:1006F00086EA90E00E9483020E949C01C093F80069
:100700009FEFE3EDF0E39150E040F040E1F700C0EF
:1007100000004BCF0E94370280E690E00E948302E7
:100720006091F80070E080E090E00E94920280EC1E
:100730000E94A7018AEB90E00E9483020E94A2011E
:10074000813049F40E94A2018130E1F39092F800D7
:10075000D093F6000FC08091F700882319F0909293
:10076000F80008C08091F2009091F300892B11F0FD
:100770009092F8002FEF80E792E021508040904067
:10078000E1F700C0000011CF0E94370280E690E040
:100790000E9483026091F80070E080E090E00E9487
:1007A000920280EC0E94A70182EC90E00E948302FA
:1007B000EFEFF3ED20E3E150F0402040E1F700C01F
:1007C00000008091F70081110BC08091F60081112B
:1007D00007C08091F2009091F300892B09F4E5CED7
:1007E000A092F800E2CE0E94370280E690E00E94DC
:1007F00083026091F80070E080E090E00E94920235
:1008000080EC0E94A7018CEC90E00E9483020E9481
:10081000BB048FEF93EDE0E381509040E040E1F7BF
:1008200000C00000C092F800C0CE0E94370280E6EF
:1008300090E00E9483026091F80070E080E090E018
:100840000E94920280EC0E94A7018AED90E00E9433
:1008500083028091F700882319F00E94C30411C01D
:100860008091F600882319F00E94C3040AC0809189
:10087000F4009091F500892B21F0F80180810E940D
:10088000C304FFEF23ED80E3F15020408040E1F707
:1008900000C00000B092F80088CE0E94370280E6C7
:1008A00090E00E9483026091F80070E080E090E0A8
:1008B0000E94920280EC0E94A70187EE90E00E94C5
:1008C00083029FEFE3EDF0E39150E040F040E1F769
:1008D00000C000001092F7001092F6001092F30092
:1008E0001092F200C093F80060CE1F920F920FB6E4
:1008F0000F9211248F938CB18093F7008F910F90FA
:100900000FBE0F901F9018951F920F920FB60F9267
:1009100011242F933F934F935F936F937F938F9304
:100920009F93AF93BF93EF93FF930E9488009093A0
:10093000F5008093F4009C01220F331F220F331F18
:10094000820F931F892F869586958093F2001092CF
:10095000F300369AFF91EF91BF91AF919F918F91E4
:100960007F916F915F914F913F912F910F900FBEAB
:100970000F901F901895BD9ABE98BF9ABC9A709818
:1009800083E58DB908958FB9779BFECF0895899A35
:10099000889888E98AB986E880BD87E689B910BC5D
:1009A0000895EE0FFF1F0590F491E02D0994253274
:1009B000310520F4223010F00C94E204FA01108288
:1009C000CA010895BB272A3051F4992342F4BDE2AD
:1009D00090958095709561957F4F8F4F9F4F0C94A8
:1009E000F204BB27FA01A62F621771058105910554
:1009F000330B30FB66F0AA27660F771F881F991FFD
:100A0000AA1FA21710F0A21B63953850A9F7A05D8A
:100A1000AA3308F0A95DA19336F7B111B193108202
:100A2000CA010C941305DC01FC01672F7191772337
:100A3000E1F7329704C07C916D9370836291AE1799
:0A0A4000BF07C8F30895F894FFCF34
:100A4A0053746174654D616368696E650057656CBE
:100A5A00636F6D65004C65645F696E7469616C698A
:100A6A007A6500506F745F496E69616C697A617466
:100A7A00696F6E00484330355F496E69616C697A07
:100A8A006174696F6E00427574746F6E5F496E6946
:100A9A00616C697A6174696F6E0057616974696E15
:100AAA006700526563696576696E670053706920ED
:100ABA00696E7469616C697A650053706920747231
:100ACA00616E736D6974004E65775F5374617274F9
:020ADA0000001A
:00000001FF
